:020000040800F2
:10000000780600208901000815040008AD030008E7
:100010001104000843020008E30C0008000000007F
:10002000000000000000000000000000B50500080E
:100030008D020008000000009D040008A1060008D1
:10004000A3010008A3010008A3010008A301000800
:10005000A3010008A3010008A3010008A3010008F0
:10006000A3010008A3010008A3010008A3010008E0
:10007000A3010008A3010008A3010008A3010008D0
:10008000A3010008A3010008A3010008A3010008C0
:10009000A3010008A3010008A3010008A3010008B0
:1000A000A30100086D070008A3010008A3010008D0
:1000B000A3010008A3010008A3010008A301000890
:1000C000A3010008A3010008A3010008A301000880
:1000D000A3010008890A0008A3010008A301000881
:1000E000A3010008A3010008A301000800F002F822
:1000F00000F03AF80AA090E8000C82448344AAF188
:100100000107DA4501D100F02FF8AFF2090EBAE885
:100110000F0013F0010F18BFFB1A43F0010318473B
:10012000FC0B00001C0C0000103A24BF78C878C1FA
:10013000FAD8520724BF30C830C144BF04680C60ED
:10014000704700000023002400250026103A28BF35
:1001500078C1FBD8520728BF30C148BF0B60704739
:100160001FB51FBD10B510BD00F031F81146FFF7E7
:10017000F7FF00F0B8FD00F04FF803B4FFF7F2FF0F
:1001800003BC00F057F800000948804709480047C1
:10019000FEE7FEE7FEE7FEE7FEE7FEE7FEE7FEE737
:1001A000FEE7FEE704480549054A064B7047000094
:1001B000A5060008ED000008780000207806002061
:1001C000780200207802002070477047704775461B
:1001D00000F02CF8AE4605006946534620F00700B3
:1001E000854618B020B5FFF7DDFFBDE820404FF091
:1001F00000064FF000074FF000084FF0000B21F011
:100200000701AC46ACE8C009ACE8C009ACE8C009DD
:10021000ACE8C0098D46704710B50446AFF30080C6
:100220002046BDE81040FFF7A8BF00000048704717
:100230001800002001491820ABBEFEE7260002008E
:10024000704700BFFEE7000010B54FF47A610D481B
:1002500000F0C3FB4FF47A610A4800F0C0FB0121B3
:10026000094800F0A1F80221074800F09BF84FF47C
:100270008061054800F098F84FF40061024800F0F2
:1002800091F810BD00040040000C014070472DE9BA
:10029000F04102460025002600200023002400270C
:1002A00091F803C00CF00F0591F803C00CF0100C8E
:1002B000BCF1000F03D091F802C04CEA050591F89B
:1002C00000C0BCF1000F31D0146800202BE04FF0CB
:1002D000010C0CFA00F3B1F800C00CEA03069E42D0
:1002E00020D183004FF00F0C0CFA03F7BC4305FA42
:1002F00003FC4CEA040491F803C0BCF1280F06D1BA
:100300004FF0010C0CFA00FCC2F814C00AE091F89E
:1003100003C0BCF1480F05D14FF0010C0CFA00FCF2
:10032000C2F810C0401C0828D1D31460B1F800C036
:10033000BCF1FF0F34DD546800202EE000F1080C02
:100340004FF0010808FA0CF3B1F800C00CEA0306FC
:100350009E4221D183004FF00F0C0CFA03F7BC43EF
:1003600005FA03FC4CEA040491F803C0BCF1280F21
:1003700005D100F1080C08FA0CF8C2F8148091F8C5
:1003800003C0BCF1480F07D100F1080C4FF0010881
:1003900008FA0CF8C2F81080401C0828CED354602C
:1003A000BDE8F081416170470161704700BFFEE721
:1003B00008B50121102000F083F810208DF803000B
:1003C0004002ADF8000003208DF8020069460448A1
:1003D000FFF75DFF4FF400510148FFF7E5FF08BD4F
:1003E0000010014008B50121082000F069F8102034
:1003F0008DF8030040F60340ADF8000003208DF8AF
:10040000020069460148FFF742FF08BD000C0140A9
:1004100000BFFEE77047000070B5002100230F22E7
:10042000C47804B3154C246804F4E064C4F5E064B3
:10043000210AC1F10403CA40447804FA03F1847824
:100440001440214309010E4C0678A155047804F0AC
:100450001F050124AC4005786D11AD0005F1E025C4
:10046000C5F8004109E0047804F01F050124AC4000
:10047000044D0678761145F8264070BD0CED00E07D
:1004800000E400E080E100E002490143024A11601B
:10049000704700000000FA050CED00E07047000016
:1004A00029B1064AD2690243044BDA6104E0034AE7
:1004B000D2698243014BDA617047000000100240AC
:1004C00029B1064A92690243044B9A6104E0034A47
:1004D00092698243014B9A6170470000001002400C
:1004E00030B500210022002400232D4D6D6805F059
:1004F0000C0121B1042905D0082923D105E0294D9B
:10050000056022E0274D05601FE0254D6D6805F46C
:100510007012234D6D6805F48034022505EB92427C
:100520001CB9214D554305600BE01D4D6D6805F468
:1005300000351DB11C4D5543056002E0194D554372
:10054000056002E0174D056000BF00BF144D6D68E7
:1005500005F0F0010909154D6B5C0568DD4045604B
:100560000F4D6D6805F4E061090A104D6B5C45683C
:10057000DD4085600A4D6D6805F46051C90A0B4D78
:100580006B5C4568DD40C560054D6D6805F4404114
:10059000890B074D6B5CC568B5FBF3F5056130BD94
:1005A0000010024000127A0000093D000000002007
:1005B00010000020704710B500F002F810BD0000D8
:1005C0000CB50020019000903348006840F4803062
:1005D0003149086000BF3048006800F400300090E6
:1005E0000198401C0190009818B90198B0F5A06FCF
:1005F000F1D12948006800F4003010B101200090CA
:1006000001E0002000900098012843D123480068B1
:1006100040F01000214908600846006820F00300FF
:1006200008600846006840F0020008601A48406808
:10063000194948600846406848600846406840F4E8
:10064000806048600846406820F47C104860084696
:10065000406840F4E81048600846006840F0807048
:10066000086000BF0C48006800F000700028F9D056
:100670000948406820F00300074948600846406880
:1006800040F00200486000BF0348406800F00C00E2
:100690000828F9D10CBD00000010024000200240E3
:1006A0007047000010B51348006840F00100114980
:1006B000086008464068104908400E4948600846EE
:1006C00000680E4908400B4908600846006820F49D
:1006D000802008600846406820F4FE0048604FF41F
:1006E0001F008860FFF767FF4FF000600449086053
:1006F00010BD0000001002400000FFF8FFFFF6FEF2
:1007000008ED00E07FB505460C460121C802FFF761
:10071000D7FEADF80850ADF804400020ADF80A004F
:10072000ADF806008DF80C0001A90F4800F05AF949
:1007300001210D4800F070F8012241210A4800F023
:100740008EF80121084800F06DF819208DF800009E
:1007500000208DF8010001208DF802008DF80300C3
:100760006846FFF759FE7FBD002C014010B50121FE
:10077000034800F063F80121014800F050F810BD73
:10078000002C014030B589B005460C4601210220FD
:10079000FFF786FE01210420FFF792FEC020ADF88E
:1007A000200018208DF8230003208DF8220008A9CE
:1007B0001748FFF76CFDADF81850ADF81440002055
:1007C000ADF81A00ADF8160005A9124800F00AF9B4
:1007D0006020ADF804000120ADF806000020ADF85F
:1007E0000C0001A90B4800F043F801A9094800F0EA
:1007F00095F80821074800F087F80821054800F01F
:10080000DFF80121034800F00DF809B030BD000009
:100810000008014000040040CA4302827047CA43F6
:100820000282704721B1028842F00102028004E096
:1008300002884FF6FE731A400280704730B50246B8
:10084000002000230024158A05EA0103958905EAA2
:10085000010413B10CB1012000E0002030BD1AB139
:1008600083890B43838102E083898B4383817047B3
:1008700070B5002400220023058C4FF6FE7635402B
:100880000584028C8388048B4FF68F752C40B51E2F
:100890002C400D882C43751E2A400D892A434D8813
:1008A0002A43144DA8420BD0134DA84208D0134D33
:1008B000A84205D0124DA84202D0124DA84213D131
:1008C0004FF6F7752A404D892A434FF6FB752A40AB
:1008D0008D882A434FF6FF652B404FF6FF552B407E
:1008E0008D892B43CD892B4383800483CD888586D6
:1008F000028470BD002C01400034014000400140E2
:1009000000440140004801400A460021018B4FF697
:10091000F7731940114301837047000070B500243C
:1009200000220023058C4FF6EF7635400584028CBB
:100930008388048B48F6FF752C404FF6FF452C400A
:100940000D884FF6FF7606EA05252C434FF6DF7536
:100950002A400D8906EA05152A434D8806EA051541
:100960002A43154DA84202D0144DA8421DD14FF67E
:100970007F752A404D894FF6FF7606EA05152A4312
:100980004FF6BF752A408D8806EA05152A434FF6B3
:10099000FF352B404FF2FF752B408D8906EA850508
:1009A0002B43CD8906EA85052B4383800483CD88BC
:1009B0000587028470BD0000002C01400034014016
:1009C0000A460021018B4FF2FF7319404FF6FF7367
:1009D00003EA022319430183704781867047018728
:1009E00070470000002202881D4B98420ED01D4B1C
:1009F00098420BD0B0F1804F08D01B4B984205D0E5
:100A00001A4B984202D01A4B984204D14FF68F737A
:100A10001A404B881A43174B984207D0164B9842FE
:100A200004D04FF6FF431A40CB881A4302808B88CC
:100A300083850B8803850A4B98420BD0094B98425B
:100A400008D00E4B984205D00D4B984202D00D4B6A
:100A5000984201D10B7A03860123838270470000FC
:100A6000002C014000340140000400400008004018
:100A7000000C004000100040001400400040014005
:100A8000004401400048014010B52021074800F013
:100A900084F8012808D12021044800F069F80348AF
:100AA00000F01AF90249087010BD0000003801403A
:100AB0001400002010B586B0044601210420FFF781
:100AC000FFFC01218803FFF7FBFC18208DF81700BD
:100AD0004FF40070ADF8140003208DF8160005A93E
:100AE0002148FFF7D4FB04208DF817000002ADF871
:100AF000140003208DF8160005A91B48FFF7C7FB5B
:100B000001218803FFF7DCFC00940020ADF80C0005
:100B10000C20ADF80A000020ADF80800ADF8060082
:100B2000ADF804006946114800F06AF801210F4849
:100B300000F027F825208DF8100001208DF8130013
:100B400000208DF811008DF8120004A8FFF764FC56
:100B5000012240F22551054800F02CF840210348BD
:100B600000F006F806B010BD000801400038014052
:100B700001F40072B2F5007F00D100BFCA430280C9
:100B8000704721B1828942F40052828104E0828957
:100B90004DF6FF731A408281704702460020B1F57E
:100BA000007F00D100BF13880B400BB1012000E093
:100BB00000207047F0B503460024002600250020E1
:100BC00040F66A17B94200D100BF1846C1F342147B
:100BD00001F01F06012707FA06F5012C01D10C30A0
:100BE00004E0022C01D1103000E014301AB1076883
:100BF0002F43076002E00768AF430760F0BD0000C5
:100C00002DE9F04786B005460E460024A24600BFF7
:100C1000A1460027B08900B100BF2F462C8A4CF6B0
:100C2000FF700440F08804432C82AC894EF6F31028
:100C30000440B08831890843718908430443AC817A
:100C4000AC8A4FF6FF400440B0890443AC8201A84F
:100C5000FFF746FC1F48874202D1DDF810A001E0F3
:100C6000DDF80CA0A88900F4004040B10AEBCA00EE
:100C700000EB0A1031684900B0FBF1F807E00AEB1D
:100C8000CA0000EB0A1031688900B0FBF1F864205B
:100C9000B8FBF0F004012009642101FB1089A88948
:100CA00000F4004040B1322000EBC900B0FBF1F08D
:100CB00000F00700044308E0322000EB0910642133
:100CC000B0FBF1F000F00F0004432C8106B0BDE84A
:100CD000F08700000038014001468888C0F3080012
:100CE000704700BFFEE74FF4E060FFF7CDFB4FF425
:100CF000E130FFF7DFFE002141F61F40FFF742FD24
:100D0000FFF770FB40F2CF2140F2E730FFF7FAFC2B
:100D1000FFF74EFB01E0FFF797FAFCE73C0D0008F8
:100D2000000000201800000028010008540D0008F1
:100D300018000020600600004401000800000000C8
:100D4000010203040102030406070809020406085D
:040D5000300000006F
:04000005080000ED02
:00000001FF
