:020000040800F2
:1000000068060020890100087D040008CB03000871
:1000100079040008570200082D0C000800000000B9
:1000200000000000000000000000000019060008A9
:100030005B02000800000000D50500080507000865
:10004000A3010008A3010008A3010008A301000800
:10005000A3010008A3010008A3010008A3010008F0
:10006000A3010008A3010008A3010008A3010008E0
:10007000A3010008A3010008A3010008A3010008D0
:10008000A3010008A3010008A3010008A3010008C0
:10009000A3010008A3010008A3010008A3010008B0
:1000A000A3010008A3010008A3010008A3010008A0
:1000B000A3010008A3010008A3010008A301000890
:1000C000A3010008A3010008A3010008A301000880
:1000D000A3010008A3010008A3010008A301000870
:1000E000A3010008A3010008A301000800F002F822
:1000F00000F03AF80AA090E8000C82448344AAF188
:100100000107DA4501D100F02FF8AFF2090EBAE885
:100110000F0013F0010F18BFFB1A43F0010318473B
:10012000AC0D0000CC0D0000103A24BF78C878C197
:10013000FAD8520724BF30C830C144BF04680C60ED
:10014000704700000023002400250026103A28BF35
:1001500078C1FBD8520728BF30C148BF0B60704739
:100160001FB51FBD10B510BD00F031F81146FFF7E7
:10017000F7FF00F05DFD00F04FF803B4FFF7F2FF6A
:1001800003BC00F057F800000948804709480047C1
:10019000FEE7FEE7FEE7FEE7FEE7FEE7FEE7FEE737
:1001A000FEE7FEE704480549054A064B7047000094
:1001B00009070008ED00000868000020680600201C
:1001C000680200206802002070477047704775463B
:1001D00000F02CF8AE4605006946534620F00700B3
:1001E000854618B020B5FFF7DDFFBDE820404FF091
:1001F00000064FF000074FF000084FF0000B21F011
:100200000701AC46ACE8C009ACE8C009ACE8C009DD
:10021000ACE8C0098D46704710B50446AFF30080C6
:100220002046BDE81040FFF7A8BF00000048704717
:100230000400002001491820ABBEFEE726000200A2
:10024000704710B504460021462000F00DFE204600
:1002500000F004F810BD00BFFEE7704700B503468C
:1002600003E04FF47A7000F005F8181EA3F10103C3
:10027000F7D100BD00EBC001C9004FF0E022516191
:10028000002191610521116100BF4FF0E021096952
:1002900001F480310029F8D004214FF0E0221161EF
:1002A00070472DE9F041024600250026002000237A
:1002B0000024002791F803C00CF00F0591F803C04B
:1002C0000CF0100CBCF1000F03D091F802C04CEA06
:1002D000050591F800C0BCF1000F31D01468002072
:1002E0002BE04FF0010C0CFA00F3B1F800C00CEA5F
:1002F00003069E4220D183004FF00F0C0CFA03F747
:10030000BC4305FA03FC4CEA040491F803C0BCF1B9
:10031000280F06D14FF0010C0CFA00FCC2F814C0F3
:100320000AE091F803C0BCF1480F05D14FF0010C71
:100330000CFA00FCC2F810C0401C0828D1D314608D
:10034000B1F800C0BCF1FF0F34DD546800202EE08E
:1003500000F1080C4FF0010808FA0CF3B1F800C0E6
:100360000CEA03069E4221D183004FF00F0C0CFAD9
:1003700003F7BC4305FA03FC4CEA040491F803C0FC
:10038000BCF1280F05D100F1080C08FA0CF8C2F8EE
:10039000148091F803C0BCF1480F07D100F1080C9C
:1003A0004FF0010808FA0CF8C2F81080401C082829
:1003B000CED35460BDE8F0810246002093680B4024
:1003C0000BB1012000E00020704700BFFEE70000F5
:1003D00010B54FF400610748FFF7EEFF012806D182
:1003E00001030448FFF7E8FF012800D110BD0020F9
:1003F000FCE70000000C014010B54FF480510448A8
:10040000FFF7DAFF012800D110BD0020FCE7000053
:10041000000C014010B500244FF400410A48FFF7DA
:10042000CBFF70B91420FFF719FF00BF4FF4004154
:100430000548FFF7C1FF0028F8D01420FFF70EFF92
:100440000124204610BD00000008014008B501212C
:10045000042000F0D1F848208DF803004FF400404C
:10046000ADF8000003208DF8020069460148FFF74F
:1004700018FF08BD0008014000BFFEE770470000FC
:1004800000B589B00121042000F0A6F80121082060
:1004900000F0B2F84020ADF8200018208DF82300BD
:1004A00003208DF8220008A94848FFF7FAFE8020B3
:1004B000ADF8200018208DF8230003208DF82200CD
:1004C00008A94248FFF7EDFE4FF48070ADF8200018
:1004D00018208DF8230003208DF8220008A93B483E
:1004E000FFF7DFFE4FF40070ADF8200018208DF804
:1004F000230003208DF8220008A93448FFF7D1FE1D
:100500006320ADF818002320ADF814000020ADF8EA
:100510001A00ADF8160005A92D4800F0A1FA6020D8
:10052000ADF804000120ADF806000020ADF80A0087
:10053000ADF80C0001A9264800F02EF96020ADF8B6
:1005400004000120ADF806000020ADF80A00ADF867
:100550000C0001A91E4800F075F96020ADF80400F8
:100560000120ADF806000020ADF80A00ADF80C003F
:1005700001A9174800F0C6F96020ADF80400012079
:10058000ADF806000020ADF80A00ADF80C0001A996
:100590000F4800F011FA08210D4800F049F9082130
:1005A0000B4800F0A1F90821094800F0FBF90821E7
:1005B000074800F03FFA0121054800F0D5F8012175
:1005C000034800F0DDF809B000BD0000000C014058
:1005D000000800407047000029B1064AD269024372
:1005E000044BDA6104E0034AD2698243014BDA61C9
:1005F000704700000010024029B1064A9269024388
:10060000044B9A6104E0034A92698243014B9A6168
:100610007047000000100240704710B500F002F86B
:1006200010BD00000CB50020019000903348006818
:1006300040F480303149086000BF3048006800F461
:10064000003000900198401C0190009818B9019862
:10065000B0F5A06FF1D12948006800F4003010B166
:100660000120009001E0002000900098012843D173
:100670002348006840F010002149086008460068DF
:1006800020F0030008600846006840F0020008609F
:100690001A4840681949486008464068486008465A
:1006A000406840F4806048600846406820F47C1050
:1006B00048600846406840F4E81048600846006812
:1006C00040F08070086000BF0C48006800F00070C7
:1006D0000028F9D00948406820F003000749486025
:1006E0000846406840F00200486000BF0348406888
:1006F00000F00C000828F9D10CBD000000100240E9
:10070000002002407047000010B51348006840F018
:1007100001001149086008464068104908400E4928
:100720004860084600680E4908400B4908600846C2
:10073000006820F4802008600846406820F4FE002D
:1007400048604FF41F008860FFF767FF4FF00060BC
:100750000449086010BD0000001002400000FFF8CE
:10076000FFFFF6FE08ED00E021B1028842F08002B2
:10077000028004E002884FF67F731A4002807047BF
:1007800021B1028842F00102028004E002884FF6A3
:10079000FE731A400280704770B5002400220023C7
:1007A000058C4FF6FE7635400584028C8388048BD9
:1007B0004FF68F752C40B51E2C400D882C43751EAE
:1007C0002A400D892A434D882A43144DA8420BD054
:1007D000134DA84208D0134DA84205D0124DA8428F
:1007E00002D0124DA84213D14FF6F7752A404D8919
:1007F0002A434FF6FB752A408D882A434FF6FF6542
:100800002B404FF6FF552B408D892B43CD892B4331
:1008100083800483CD888586028470BD002C0140CE
:1008200000340140004001400044014000480140C4
:100830000A460021018B4FF6F773194011430183DB
:100840007047000070B5002400220023058C4FF68D
:10085000EF7635400584028C8388048B48F6FF755B
:100860002C404FF6FF452C400D884FF6FF7606EAE8
:1008700005252C434FF6DF752A400D8906EA05153C
:100880002A434D8806EA05152A43154DA84202D091
:10089000144DA8421DD14FF67F752A404D894FF661
:1008A000FF7606EA05152A434FF6BF752A408D8864
:1008B00006EA05152A434FF6FF352B404FF2FF7528
:1008C0002B408D8906EA85052B43CD8906EA8505EF
:1008D0002B4383800483CD880587028470BD00008C
:1008E000002C0140003401400A460021018B4FF2E8
:1008F000FF7319404FF6FF7303EA02231943018384
:100900007047000070B5002400220023058C4FF6CC
:10091000FF6635400584028C8388848B4FF68F7583
:100920002C404FF6FC752C400D882C434FF6FF559C
:100930002A400D894FF6FF7606EA05252A434D88A1
:1009400006EA05252A43154DA84202D0144DA842B7
:100950001DD14FF2FF752A404D894FF6FF7606EA0A
:1009600005252A434FF6FF352A408D8806EA0525DE
:100970002A434EF6FF752B404DF6FF752B408D89AF
:1009800006EA05152B43CD8906EA05152B4383801E
:100990008483CD888587028470BD0000002C0140CF
:1009A000003401400A460021818B4FF6F77319404D
:1009B000114381837047000070B50022002300249A
:1009C000058C4EF6FF7635400584038C8488828B37
:1009D00048F6FF752A404FF6FF452A400D884FF62E
:1009E000FF7606EA05252A434DF6FF752B400D8953
:1009F00006EA05352B434D8806EA05352B430B4D9A
:100A0000A84202D00A4DA84208D14BF6FF752C40EF
:100A10008D894FF6FF7606EA85152C438480828304
:100A2000CD88A0F84050038470BD0000002C014028
:100A3000003401400A460021818B4FF2FF731940B8
:100A40004FF6FF7303EA02231943818370478186BF
:100A500070470187704781877047A0F84010704742
:100A6000002202881D4B98420ED01D4B98420BD09D
:100A7000B0F1804F08D01B4B984205D01A4B9842DA
:100A800002D01A4B984204D14FF68F731A404B880C
:100A90001A43174B984207D0164B984204D04FF692
:100AA000FF431A40CB881A4302808B8883850B88CA
:100AB00003850A4B98420BD0094B984208D00E4B45
:100AC000984205D00D4B984202D00D4B984201D16F
:100AD0000B7A03860123838270470000002C0140BB
:100AE000003401400004004000080040000C0040B9
:100AF000001000400014004000400140004401404C
:100B00000048014008B501210820FFF775FD2820A5
:100B10008DF8030041F60240ADF8000003208DF887
:100B2000020069460148FFF7BCFB08BD000C01400C
:100B30002DE9F0414FF400612248FFF73DFC0646E5
:100B40004FF480611F48FFF737FC044602211D481F
:100B5000FFF732FC05464FF480511A48FFF72CFC92
:100B60000746012C06D1012D04D10021462000F0BA
:100B70007BF924E0012C05D125B90021462000F0A5
:100B800041F91CE034B9012D04D10021462000F0C8
:100B90004CF914E09CB995B9012F07D100214620EA
:100BA00000F043F9C820FFF759FB08E0012E06D1F9
:100BB0000021462000F026F9C820FFF74FFBBDE8D2
:100BC000F0810000000C014010B5044607E0A0478A
:100BD00000B105E0FFF7ACFF0120FFF73FFBF6E7B0
:100BE00000BF10BD10B50021462000F01EF94FF4E3
:100BF0009670FFF733FB14E00021462000F015F952
:100C00004FF480610848FFF7D7FB012805D0022187
:100C10000548FFF7D1FB012800D103E00120FFF7D1
:100C20001DFBE9E700BF10BD000C014000BFFEE75F
:100C300000F02DF9FFF70AFCFFF764FF00BFFFF794
:100C4000E9FB0028FBD04FF47A70FFF707FB012087
:100C5000694908604FF4FA70FFF7F3FA14E0FFF700
:100C600067FF4FF480516548FFF7A6FB012808D1C4
:100C700002216248FFF7A0FB012802D1FFF7B2FF73
:100C800003E00120FFF7EAFAE9E700BFC820FFF719
:100C9000D8FA12E0FFF74CFF4FF480515748FFF7A6
:100CA0008BFB012806D14FF4C870FFF7CAFAFFF793
:100CB00099FF03E00120FFF7D1FAEBE700BF5048AE
:100CC000FFF782FF08E0FFF733FFFFF781FB00B17A
:100CD00003E00120FFF7C2FAF5E700BF0220464912
:100CE00008604FF4FA70FFF7ACFA14E0FFF720FF4A
:100CF0004FF480514148FFF75FFB012808D10221E2
:100D00003E48FFF759FB012802D1FFF76BFF03E0D4
:100D10000120FFF7A3FAE9E700BFC820FFF791FA27
:100D200012E0FFF705FF4FF480513448FFF744FB12
:100D3000012806D14FF4C870FFF783FAFFF752FF7E
:100D400003E00120FFF78AFAEBE700BF002405E08B
:100D5000FFF7EEFE0120FFF781FA641C41F28830B4
:100D60008442F5DB1EE04FF480612448FFF724FB4A
:100D7000064602212148FFF71FFB07464FF480512A
:100D80001E48FFF719FB0546012D05D16420FFF72A
:100D900058FAFFF727FF06E0FFF7CAFE0120FFF72A
:100DA0005DFA00BFDFE700BFC820FFF74AFA0DE099
:100DB000FFF7BEFEFFF70CFB28B1C820FFF741FA92
:100DC000FFF710FF03E00120FFF748FAF0E700BF4C
:100DD0006420FFF736FA0BE0FFF7FAFA18B10020AB
:100DE00000F036F805E0FFF7A3FE0120FFF736FA22
:100DF000F2E700BF00BFFEE700000020000C01404A
:100E0000F903000870B504460D46642C00DD642427
:100E1000002C00DA0024E2B200231946184600F044
:100E20003BF82846FFF71AFA70BD70B504460D4628
:100E3000642C00DD6424002C00DA0024E0B20023DE
:100E40001A46194600F028F82846FFF707FA70BD41
:100E500010B5044600231A461946184600F01CF83F
:100E60002046FFF7FBF910BD70B504460D46642C13
:100E700000DD6424002C00DA0024E2B2E0B200239A
:100E8000194600F009F82846FFF7E8F970BD10B5DB
:100E9000FFF7F6FA10BD00002DE9F04104460F46B9
:100EA00015461E4621460848FFF7D1FD394606483B
:100EB000FFF7CFFD29460448FFF7CDFD3146024834
:100EC000FFF7CBFDBDE8F08100080040EC0E000804
:100ED000000000200400000028010008F00E0008B7
:100EE0000400002064060000440100080000000027
:04000005080000ED02
:00000001FF
